:10000000AEC1B5C1B4C1BECDB2C1B1C1B0C1AFC145
:10001000AEC1ADC1ACC1ABC1AAC1A9C1A8C16A9AE8
:100020001D2719D95D559D551D471DB6D9511D6612
:10003000B7D9D161769BDD66B7D95148A602BA67B8
:1000400007B94E7FD5495715D924D9D971509D4547
:100050006346479B1DD166F4213169544467B7D983
:10006000D96D4654674787194D109D1D66479A8480
:10007000D1611C90A74DDC18D5614F62D836CD49AF
:100080004567131864459027BD6157074D9A9A201C
:1000900073D87962B07FC9869B77E139C6457E7A8D
:1000A000C31260636CDE905D1D34428C242D49D7F1
:1000B00086BD79D00671E57910D110129390F7655D
:1000C00064347149DA4512F424244DDB4670464607
:1000D000665774467765776AA2E2707627490B9E69
:1000E00097DCB4636E7C529BF44540E50161445754
:1000F00055F7E1894D53E48539B93109497FA34565
:100100006B1C6CD23679DA3474491011C67950718F
:10011000940631B9417610F6C1599390F601719B5E
:100120004D12C4412721491004411C7665572A6AA3
:10013000475E18ABC3758D24275515C63D05E1797B
:10014000191C4EE30979752D6066640669DF5C1A37
:1001500092F4558D8D27577E2B871B9C5C061C0EB9
:100160004117A44B72E395041B5EEDC451A4279A7A
:100170002489125C5D656CB26F27D5D80CE9E49CCC
:100180005CAD71464BD43425791E55744C22C1E1C7
:10019000A4E7E7D50440B841E57955977172724BF1
:1001A0001B4445D8A76D76C54990E73169570002D1
:1001B000000300040006D4023E04A8057C080000E9
:1001C0000004000400040001000100016A010001B4
:1001D0006A010002D402000306090C0F1215181C54
:1001E0001F2225282B2E303336393C3F41444749C6
:1001F0004C4E515355585A5C5E60626466686A6C36
:100200006D6F70727375767778797A7B7C7C7D7E82
:100210007E7F7F7F7F7F7F7F7F7F7F7F7E7E7D7CF6
:100220007C7B7A79787776757372706F6D6C6A689B
:10023000666462605E5C5A585553514E4C4947445F
:10024000413F3C393633302E2B2825221F1C1815F0
:10025000120F0C09060300FDFAF7F4F1EEEBE8E4E7
:10026000E1DEDBD8D5D2D0CDCAC7C4C1BFBCB9B7D7
:10027000B4B2AFADABA8A6A4A2A09E9C9A98969447
:100280009391908E8D8B8A898887868584848382DA
:100290008281818181818181818181818282838446
:1002A0008485868788898A8B8D8E90919394969881
:1002B0009A9C9EA0A2A4A6A8ABADAFB2B4B7B9BC9D
:1002C000BFC1C4C7CACDD0D2D5D8DBDEE1E4E8EBEC
:1002D000EEF1F4F7FAFD7300F99B7D002F00793DF4
:1002E000C03F006F015700679269000B007A2EAE85
:1002F000270048017E00FFFF66FFA7FF6FF9951AF0
:10030000002E019A0022111500250070139E57003F
:10031000D700920065D35E00380059FEAD0A00CDCB
:10032000006F00077C230009007F42C240008D005F
:100330008F005DB35C002F005C09A61F006E0031CA
:10034000010CE1A3FFFCFF6A0CA233003B006C0030
:100350004E9AF0FF2F00750DB31D001E00001124F2
:100360001FBECFE5D2E0DEBFCDBF3EDCF0CB48CE36
:10037000AF92BF92CF92DF92EF92FF920F931F93B3
:10038000CF93DF93DC018096C2E2DCE46BEE7AE18E
:100390004FE950E5E090E000F090E100EF2DFF27FD
:1003A000EA52FE4FE4910091D6001091D7000E2E34
:1003B000000CFF0B9E012E1B3F0B369527953695A3
:1003C000279536952795200F311F3093D70020931E
:1003D000D600C090D800D090D900212F220F012F35
:1003E000110F110B020F111D27FD1A955801B5941D
:1003F000A7941D2D110F2D2D0D2C000C330B210F4B
:10040000311D17FD3A95359527958501020F131F6C
:100410009F012A50384E3695279536952795369563
:100420002795C20ED31ED092D900C092D800C0909A
:10043000DA00D090DB00BD2CBB0C2D2D0D2C000C58
:10044000330B2B0D311DB7FC3A9535952795200FB1
:10045000311F8B010E1B1F0B1695079516950795DF
:1004600016950795C00ED11ED092DB00C092DA001F
:10047000C090DC00D090DD00BD2CBB0C0D2D0D2CF0
:10048000000C110B0B0D111DB7FC1A951595079556
:10049000020F131F9F0123533C4B3695279536952A
:1004A000279536952795C20ED31ED092DD00C092B7
:1004B000DC00C090DE00D090DF009A012E1B3F0BC5
:1004C000E3E036952795EA95E1F72C0D3D1D309335
:1004D000DF002093DE0024E1E20EF11CF092E10047
:1004E000E092E000ED2DEE0F2D2DDD0C330B2E0FE5
:1004F000311DE7FD3A9535952795200F311F009066
:10050000D50002C0359527950A94E2F7ED91FC914C
:1005100011972E0F3F1F2D933D938A179B0709F0CC
:1005200039CFDF91CF911F910F91FF90EF90DF9026
:10053000CF90BF90AF9008959C0146E036952795E7
:100540004A95E1F7422F480F282F082E000C330B55
:10055000240F311D47FD3A95AC0156954795BC01D6
:10056000660F672F661F770B7195640F260F311D7D
:1005700067FD3A959927FC01EA52FE4FE491C901C3
:100580008E0F911DE7FD9A95FA01FF27EA52FE4F63
:100590002491820F911D27FD9A95E4918E0F911D54
:1005A000E7FD9A9595958795959587950895880F78
:1005B000991FFC01FF27EA52FE4F8491082E000C80
:1005C000990B0895FC01EF2FFF27E695E695EA5277
:1005D000FE4FE49199270E2E000CFF0BF595E79541
:1005E000E158FF4F8E179F0718F08FE390E00895B2
:1005F00080EC9FEF08956130F1F140F1623009F431
:1006000059C0633009F058C0682F660F9C0145E05F
:10061000369527954A95E1F7482F440F440F440F2C
:10062000242BAC0173E0569547957A95E1F7422B60
:100630009C01E6E036952795EA95E1F7262B240FF5
:100640009695879596958795862B32C09C01B5E047
:1006500036952795BA95E1F7382F3295307F232BC1
:100660003DEB3827232B8354910934E096958795E9
:100670003A95E1F71DC09C01220F232F221F330B57
:100680003195482F4295440F407E422B9C012770A4
:100690003327BC0102C0769567952A95E2F79B0146
:1006A000242BAC014A72552701C0880F4A95EAF7FE
:1006B000822B08958923089580E0089580382FEFD4
:1006C000920724F0803891051CF4089580E808957D
:1006D0008FE7089521B727FD06C030E02054310987
:1006E000359527952068482F87FD06C050E0405477
:1006F00051095595479540684093A500241710F47B
:1007000091E001C09FEF9093A4002093A3009091EB
:10071000A3002091A500921759F091BF000000009E
:100720002091A3009091A400920F9093A300EFCF8B
:1007300081BF0895E199FECF1FBA8EBBE09A8DB3B9
:100740000895E199FECF1CBA1FBA8EBB6DBBE29A29
:10075000E19A089570E0669508F4780F77956795AB
:1007600008F4780F7795679508F4780F7795679573
:1007700008F4780F7795679508F4780F7795679563
:1007800008F4780F7795679508F4780F7795679553
:1007900008F4780F77956795CB010895CF93DF9391
:1007A000CDB7DEB72F97DEBFCDBF6FE0D3DF8A5264
:1007B0009D4FDE0111969C01215F3F4FFC0184910A
:1007C0008D933196E217F307D1F7EE85FF853097C9
:1007D00081F0CF01019690931101809310018C85D7
:1007E0009D8501968E0F9F1F909313018093120198
:1007F00008C0109211011092100110921301109272
:1008000012012091100130911101809112019091FB
:1008100013012817390731F0E491E093150184E0C2
:100820008093140110921601109217011092180172
:1008300089819A81A0E0B0E0DC0199278827809324
:100840001B0190931C01A0931D01B0931E01B6954E
:10085000A7959795879580931F0190932001A0936A
:100860002101B09322018B819C81A0E0B0E0880F30
:10087000991FAA1FBB1F8093230190932401A0936B
:100880002501B09326018D819E819093280180934C
:1008900027018F81988590932A018093290189856A
:1008A00080932B018A8580932C018B8580932D0169
:1008B00010922E0110922F011092300110923101EE
:1008C0001092190110921A012F96DEBFCDBFDF9151
:1008D000CF91089587FF04C081953CDF919501C0B9
:1008E00039DF892F08954F925F926F927F928F9296
:1008F0009F92AF92BF92CF92DF92EF92FF920F93AF
:100900001F93CF93DF93FB016081718177FF03C059
:100910007195619571092085318537FF03C0319547
:1009200021953109260F371F6089718977FF03C030
:10093000719561957109260F371F608D718D77FF55
:1009400003C0719561957109260F371F2B3531054D
:1009500010F02AE530E0722F6627262B372B6091A6
:10096000F2007091F3006B01E12CF12C4901A12CF4
:10097000B12C6217730748F4C80CD91CEA1CFB1C85
:10098000F694E794D794C79421C09701860163E059
:10099000000F111F221F331F6A95D1F7280139015B
:1009A0004C185D086E087F087301620123E0C20ED7
:1009B000D11CE11CF11CC80CD91CEA1CFB1C73E007
:1009C000F694E794D794C7947A95D1F7D092F30030
:1009D000C092F2002091F30030E064E670E0621B08
:1009E000730B6536710510F064E670E0F62E6A014F
:1009F000EC018C01005E1F4FF601808191815EDE6B
:100A00006F2D68DF28813981280F311D87FD3A95C8
:100A100039832883F6018281938150DE6F2D5ADF5E
:100A20002A813B81280F311D87FD3A953B832A831C
:100A3000F6018481958142DE6F2D4CDF2C813D8152
:100A4000280F311D87FD3A953D832C83F601868161
:100A5000978134DE6F2D3EDF2E813F81280F311DBF
:100A600087FD3A953F832E83F8E0CF0ED11C289660
:100A7000C017D10709F0C0CFDF91CF911F910F911F
:100A8000FF90EF90DF90CF90BF90AF909F908F90AE
:100A90007F906F905F904F900895BF92CF92DF92BA
:100AA000EF92FF920F931F93CF93DF93EC018D850D
:100AB000882309F470C0813029F0833029F408813B
:100AC000019503C00FE001C000E07A016B0140E135
:100AD000B42E002E000C110B8F819885800F911F72
:100AE00098878F838B819C81AD81BE81892F9A2FBE
:100AF000AB2FBB27F70109952D85223031F0DEDDC4
:100B00006885E8DE082E000C990BF6012081318102
:100B1000820F931F819391936F0189859A854B81F1
:100B20005C816D817E81480F591F611D711D4B8352
:100B30005C836D837E833A812981321311C02B85BA
:100B40003C858217930718F404969A8789878985CC
:100B50009A852817390718F404979A8789871A8283
:100B60008A818F5F8A83BA94B110B6CF8D85813028
:100B700019F482E08D870FC0833069F4888190E09A
:100B800023E0880F991F2A95E1F72F8138852817D0
:100B9000390708F41D86DF91CF911F910F91FF90C7
:100BA000EF90DF90CF90BF900895CF93C82FC627C6
:100BB00067FD619587FD8195CDDD892FC7FD819505
:100BC000CF9108952091AE003091AF00C901969564
:100BD000879520FD02C0009711F424EB9227909393
:100BE000AF008093AE008091AE009091AF00089569
:100BF000CF93C091D400E6DF87708093D400843017
:100C0000D0F7C817C1F3CF910895EF92FF920F93D9
:100C10001F93CF93DF937A01082E000C990B8C0160
:100C200034E0000F111F3A95E1F7C62F660FDD0B78
:100C3000C81BD90BC7DFF701A701405E5F4FBC019E
:100C4000617077279801A3E035952795AA95E1F77C
:100C5000260F371F3595279560817181260F371F25
:100C600021933193969587950C0F1D1F4E175F07A3
:100C700031F7DF91CF911F910F91FF90EF90089581
:100C80008091AE00282F217090E095958795009770
:100C900019F0211103C004C0211102C098EB89276B
:100CA0008093AE008091AE0008950F931F93CF9371
:100CB000DF93811520EC920728F48FEF8093A60034
:100CC00080E02CC0EC01C11580EFD80779F41091B9
:100CD000A600D6DF817097E0980F191719F090934E
:100CE000A60013C0885F8093A6000FC0CE019F703E
:100CF000892B59F4C5DF082F017010E00F5F1F4FDB
:100D00008091A600080F0093A6000090A60002C0E4
:100D1000D695C7950A94E2F78C2F8170DF91CF9119
:100D20001F910F9108952F923F924F925F926F9271
:100D30007F928F929F92AF92BF92CF92DF92EF926B
:100D4000FF920F931F93CF93DF93CDB7DEB7A99791
:100D5000DEBFCDBFC090AE00D090AF00E090B0003D
:100D6000F090B10097018601369527951795079564
:100D7000C0FC05C0011511052105310529F443E02A
:100D8000042740E2242730580093AE001093AF00B0
:100D90002093B0003093B100C090E200D090E30007
:100DA000E090E400F090E500A7019601ADE05695D3
:100DB000479537952795AA95D1F72AA33BA34CA32E
:100DC0005DA33AA139A3FC014C0140E2840E911CC1
:100DD0008E169F0619F011921192FACFFE013196EC
:100DE000BE2EAF2E9E012F5D3F4F11921192E21742
:100DF000F307D9F759A15E3108F0DAC479A768A7DB
:100E00008C01260137016FE15622662477248AA1DE
:100E10008450883108F483C084E08093D50045284D
:100E20004628472899F481E0809301011092FC0044
:100E30001092FB0080E091E0909300018093FF000E
:100E40001092F6008CE88093F500D2DE4CE952E077
:100E50006B2D7A2D84EF90E020DE8AA182508A31BA
:100E600068F04B2D5A2DB801C8013DDD8AA1835091
:100E70008A3108F00EC4C8017BDA0BC47090D4002C
:100E8000C090F000D090F100EB2CFA2C260170E11C
:100E9000470E511C672DC601AEDBF7012081318161
:100EA000280F311D87FD3A9531832083672DC601B8
:100EB0000196A1DBF70122813381280F311D87FDC7
:100EC0003A95338322834601F3E08F0E911C672D00
:100ED000C601029690DBF70124813581280F311D70
:100EE00087FD3A9535832483F4E0CF0ED11C672D1E
:100EF000C40181DBF70126813781280F311D87FD71
:100F00003A9537832683F8E0EF0EF11CC414D5041C
:100F100009F0C0CFD092F100C092F000A2CF84E0DF
:100F20008093D500C114D10421E0E206F10408F455
:100F30005BC116013D2D369536953EA38091D300B9
:100F4000381739F13FDE8FA33DDEEFA1EF71F0E0FE
:100F5000EE54FF4F90818F71A82FB0E0AE54BF4F79
:100F60008C9180839C932EDE8FA32CDEEFA1EF71FA
:100F7000F0E0EE54FF4F90818F71A82FB0E0AE5497
:100F8000BF4F8C9180839C931DDE8370875F80931D
:100F9000D2004EA14093D300C601880F991FA0E054
:100FA000B0E08870997CA170BB2781159840A1059D
:100FB000B1058CF0E42FEF71F0E0EE54FF4F80812B
:100FC00090E00090D20002C0880F991F0A94E2F7C7
:100FD0001C012C0C3D1CC1019F7181156FE096070F
:100FE00009F4EAC008F074C08115E7E09E0709F42F
:100FF000E3C0A0F5803823E0920709F4F3C0A0F421
:10100000811541E0940709F4CFC020F4892B09F43D
:10101000D5C0EAC0811562E0960709F4E1C08115E8
:10102000934009F4C9C0E0C08115E5E09E0709F4CA
:10103000BDC050F4811524E0920709F4BDC080388A
:10104000944009F4CFC0D0C0803845E0940709F43B
:10105000AFC08115964009F4C3C0C6C080386BE0AC
:10106000960709F4BFC0D0F48115E9E09E0709F4A2
:101070009BC050F4803827E0920709F4B3C0811573
:10108000984009F491C0B0C081154AE0940709F472
:10109000A7C081159B4009F48FC0A6C081156DE0E3
:1010A000960709F483C050F48115ECE09E0709F41B
:1010B00083C080389C4009F495C096C080382DE0EC
:1010C000920709F475C081159E4009F489C08CC04F
:1010D000811547E1940709F483C0B0F5811563E1F8
:1010E000960709F469C0A8F48115E0E19E0709F4A8
:1010F0005BC028F480389F4009F474C075C0811526
:1011000031E1930709F450C08115924109F468C098
:101110006BC0803854E1950709F464C050F48038FE
:1011200073E1970709F45EC08115944109F444C046
:101130005BC08115F5E19F0709F440C08115964118
:1011400009F052C086E04FC081153BE19307A1F141
:10115000B0F4811559E1950749F140F4811578E122
:10116000970751F180389841E9F13EC08038F9E1A4
:101170009F07F1F081159A41B9F587E023C08038C7
:101180003CE1930779F140F480385BE1950751F138
:1011900081159C4189F028C081157DE1970751F0A8
:1011A00081159F41E9F020C080E00CC081E01BC0A8
:1011B00082E008C083E003C084E015C085E0EEDA79
:1011C0008FEF02C0EBDA8FE78093EB0081E0809332
:1011D000E60088EE93E09093EA008093E90004C073
:1011E00087E001C088E0DADA411451046104710437
:1011F000A1F4F9A1F83088F42AA120FD0EC083E003
:10120000CDDA8FEF8093EB0081E08093E60088EEEB
:1012100093E09093EA008093E900D701C6018F77AD
:101220009927AA27BB27892B8A2B8B2B59F5B70126
:10123000A601E7E07695679557954795EA95D1F72A
:10124000842F8F7339A1373051F4942F9F7161F03F
:10125000963051F0803341F0863321F405C049A126
:10126000443081F08E3371F485E098DA8FE7809313
:10127000EB0081E08093E60088EE93E09093EA0033
:101280008093E90045284628472809F4B1DC4091BD
:10129000E2005091E3006091E4007091E5006A0182
:1012A0007B01E894C7F8DD24EE24FF24411580E893
:1012B00058076105710560F0DB01CA01AA27BB2749
:1012C0009A57A109B10981159548A105B10550F4B6
:1012D000411116C080E09AE19093EE008093ED00FA
:1012E00085E00CC0C114D104E104F10449F480E0AC
:1012F00090E69093EE008093ED0080EC8093EF00F9
:10130000DB01CA019F70AA27BB270097A105B10581
:1013100029F081159740A105B10591F5DB01CA01BE
:101320009F5FAF4FBF4F2BE0B695A79597958795D9
:101330002A95D1F78F71E82FF0E0EE54FF4F8081AE
:10134000877090E0FC01EE0FFF1FEA53FE4F2591DE
:101350003491E1E0E09301011092FC001092FB0057
:10136000309300012093FF001092F6002CE82093A8
:10137000F500FC01E254FE4F259134912093320197
:10138000C114D104E104F104C9F5DB01CA01F7E09D
:10139000B695A79597958795FA95D1F78F71E82F10
:1013A000F0E0EE54FF4F80818370E0913201F0E075
:1013B000E80FF11DEE0FFF1FE255FE4F859194914E
:1013C00021E020930F0110920A01109209019093DD
:1013D0000E0180930D011092040120930301411529
:1013E00051056240710530F04BDC8F708F5F880FC4
:1013F000880F01C08CE3809302010FC038E0C31650
:10140000D104E104F10449F48FEF9FEF90930A01B6
:101410008093090183E080930F018091E200909115
:10142000E300A091E400B091E500811540E8940745
:10143000A105B10530F059A1583018F036DC811102
:1014400014C08091E2009091E300A091E400B0917B
:10145000E5000097A140B105E0F08091E600813001
:1014600009F4A8C1823009F455C28091E20090913C
:10147000E300A091E400B091E500009721E0A2070D
:10148000B10538F0AA27BB2781159048A105B10501
:1014900038F44CE952E06B2D7A2D84EF90E0FDDAC0
:1014A0008091E2009091E300A091E400B091E5000A
:1014B000009742E0A407B105A8F0AC01BD01662782
:1014C0007727411550486105710560F4A0FD03C000
:1014D00047ED52E002C042EE52E06B2D7A2D82E0E1
:1014E00091E0DBDA4B2D5A2DB801C801FCD980916F
:1014F000E2009091E300A091E400B091E500009734
:10150000F1E0AF07B10548F0AA27BB278115904845
:10151000A105B10510F0C8012BD78091E200909190
:10152000E300A091E400B091E50081159048A10589
:10153000B10580F48091E2009091E300A091E40075
:10154000B091E500811540E89407A105B10508F4C4
:1015500053C04CC0D090EE00DD2061F3780190DBE9
:101560006D2DB8D9C82E8CDB6D2DB4D92C2DCC0C9B
:10157000330BF70140815181420F531F5183408348
:1015800042815381BA01621B730B73836283082EFD
:10159000000C990B24813581280F391F3583248352
:1015A00026813781F901E81BF90BCF01F7019783F9
:1015B00086838091ED009091EE002091EF0030E065
:1015C0008217930738F0821B930B9093EE00809361
:1015D000ED0004C01092EE001092ED00F8E0EF0E66
:1015E000F11C8E149F0409F0BACFA4CF29A1283092
:1015F00018F05BDB81114DC0E0911001F0911101F9
:101600004091120150911301E417F507A9F180915F
:10161000190180931A0120911501622F637030E047
:1016200035952795359527952093150190911401AF
:10163000915009F498C1909314019091180162306F
:1016400009F4A2C1633009F4A5C1613019F4919580
:101650009093180120911601622F660F9091180146
:10166000690F90911701691B209317016093160170
:1016700060931901A801C9DA80911B0190911C01A6
:10168000A0911D01B0911E010097A105B10509F0BF
:1016900087C18091E2009091E300977080389105B6
:1016A000C9F490DA982F9F709093AD0080E1891B68
:1016B0008093AC0087DA8F5F8093AB0083DA9095DC
:1016C000991F9927991F9093AA007CDA81708F5FE8
:1016D0008093A900E090A700F090A800EF2DFF27CD
:1016E000EA52FE4F84916091AD00805833D830911A
:1016F000AC00390FC090AA004091A900042E000C44
:10170000550BD80120E080E1D82ED31A231740F0E2
:10171000E22FE31BF0E0EE0FFF1FE00FF11F09C007
:10172000ED2DE20FF0E0EE0FFF1F68A579A5E60FA3
:10173000F71F80819181ED91FC911197BF01681B8A
:10174000790BCB01CC2019F0919581959109BF01BE
:10175000660F771F6E0F7F1F042E02C09595879529
:101760000A94E2F7860F971F8D939D932F5F203188
:1017700069F68091AB00E80EF11C87FDFA94F092B7
:10178000A800E092A7008091E2009091E300A09170
:10179000E400B091E5000196A11DB11D8093E20027
:1017A0009093E300A093E400B093E50081E0B9C119
:1017B00080E0B7C1D801E090E700F090E8006F2D1D
:1017C0007727FB01EA52FE4F6491C090E900D09068
:1017D000EA00EC0CFD1C4F2D5527FA01EA52FE4F92
:1017E0004491EC0CFD1C2F2D3327F901EA52FE4FDA
:1017F0002491EC0CFD1C8F2D9927FC01EA52FE4F21
:101800008491EC0CFD1CF092E800E092E700062EBB
:10181000000C770B75956795042E000C550B5595AC
:101820004795022E000C330B35952795082E000C9A
:10183000990B95958795E091EB00E7FD08C07595AC
:101840006795559547953595279595958795ED918C
:10185000FC9111977F01E60EF11C67FDFA94119639
:10186000FC92EE9212966D917C911397FB01E40F1E
:10187000F11D47FDFA951396FC93EE93129714967B
:101880004D915C9115977A01E20EF11C27FDFA94B7
:101890001596FC92EE92149716962D913C911797FF
:1018A000280F311D87FD3A9517963C932E93169776
:1018B00018968A169B0609F07ECF2091E900309198
:1018C000EA00B901B5E076956795BA95E1F7A90107
:1018D00096E0569547959A95E1F7460F571FBA013E
:1018E0006B597F4F2617370748F021503109241BC9
:1018F000350B3093EA002093E900B7CD8093EC00DC
:1019000082E08093E60080E496E09093EA00809382
:10191000E900ABCDE091E700F091E8008091E900AB
:101920009091EA00E80FF91FF093E800E093E700D8
:10193000EF2FFF27EA52FE4F84916091EB00CAD748
:10194000F82EA801682F8091EC005FD9F092EC008E
:101950008091EB00843020F083508093EB0085CDA4
:101960001092E60082CD24E0209314019F012F5FA6
:101970003F4F4217530709F094919093150130930C
:1019800011012093100159CE992311F0990F60CEC7
:1019900091E05ECE992311F095955ACE9FEF58CEE7
:1019A000CD01AF3FB10519F010F08FEF90E0D82EC8
:1019B000780166D9C82E682F80912B01F6D8782E31
:1019C00060912E0180912C01F0D8B82E60912F01EA
:1019D00080912D01EAD8A82E80912E0180932F01AD
:1019E000C0922E01C0903001809127019091280172
:1019F00065D66C2DDAD8C82E60903101809129010E
:101A000090912A015BD6662DD0D82B2DBB0C330BC1
:101A1000270D311D77FC3A952A0D311DA7FC3A950B
:101A20002C193109C7FC3395A901481B510987FDC1
:101A30005395CA0143D69091300190933101809320
:101A400030016D2D47D7F70120813181280F311DDD
:101A500087FD3A95219331937F018E169F0609F0F9
:101A6000A8CF4091230150912401609125017091EC
:101A70002601C0901F01D0902001E0902101F0903C
:101A8000220180911B0190911C01A0911D01B09138
:101A90001E01C416D506E606F706D0F46C017D01DA
:101AA000F694E794D794C794C0921F01D092200176
:101AB000E0922101F092220176956795579547951E
:101AC00040932301509324016093250170932601D4
:101AD00040912301509124016091250170912601CC
:101AE000841B950BA60BB70B80931B0190931C01D5
:101AF000A0931D01B0931E0180911F0190912001C0
:101B0000A0912101B0912201841B950BA60BB70B6C
:101B100080931F0190932001A0932101B093220193
:101B2000B8CDA996DEBFCDBFDF91CF911F910F91A8
:101B3000FF90EF90DF90CF90BF90AF909F908F90ED
:101B40007F906F905F904F903F902F90089582E02C
:101B500087BB80916100BED580E688BD2FEF39E656
:101B600098E1215030409040E1F700C0000018BCDF
:101B70002FEF39E698E1215030409040E1F700C066
:101B80000000EBCF1F920F920FB60F9211248F938C
:101B90009F93EF93FF93E0916200F0E0EE0FFF1F41
:101BA000ED59FF4F80819181959587959595879502
:101BB00080589F4F97FD06C08F3F91052CF08FEF07
:101BC00090E002C080E090E089BD809162008F5F6C
:101BD0008F7180936200FF91EF919F918F910F9091
:101BE0000FBE0F901F90189580E0A4D5C82E81E0FD
:101BF000A1D5D82E82E09ED5E82E83E09BD5F82E85
:101C00008FEFC81AD80AE80AF80A6C2D80E099D537
:101C10006D2D81E096D56E2D82E093D56F2D83E0FA
:101C200090D5C092AE00D092AF00E092B000F0929A
:101C3000B10081B780936100CFEFC09360008FEF58
:101C400049D5C7BB83EA8ABD81E083BF80E889BDEF
:101C500080E488BD12BE84E880BF85EB8EBD8DBD5B
:101C60001FBC89B7806489BF10923201C1D7E2EBF3
:101C7000F0E080E081938F5F8032E1F71092D30033
:101C80008CE08093D2001092E60080911201909136
:101C90001301909311018093100110921901109279
:101CA0001A0110921B0110921C0110921D0110923A
:101CB0001E0110921F01109220011092210110921A
:101CC00022011092230110922401109225011092FA
:101CD00026011092F6001092FE001092FD00109264
:101CE00000011092FF0094E09093F4001092F7002E
:101CF0001092F8001092F9001092FA001092FC0075
:101D00001092FB008CE38093F50010920101109279
:101D1000040110920C0110920B0110920E0110920E
:101D20000D0190930201109205011092060110928C
:101D300007011092080110920A0110920901809384
:101D4000030110920F011092F1001092F000109216
:101D5000EE001092ED001092EF001092F30010923E
:101D6000F2001092E2001092E3001092E400109250
:101D7000E5007894E3E8F0E01192119280E0E33A14
:101D8000F807D1F7809162008031E0F363E870E0FA
:101D900083E690E0C8D7811103C080E090E0D7DEF1
:101DA00080916200809162008031E0F763E670E02C
:101DB00083E890E0B8D7882381F380916200E2CF76
:00000001FF
